:020000040800F2
:10000000E8380020D1000008D9000008DB00000813
:1000100000000000000000000000000000000000E0
:10002000000000000000000000000000DD000008EB
:100030000000000000000000DF000008938F0008AF
:10004000E3000008E30000081D930008E300000837
:10005000E3000008E3000008E3000008E3000008F4
:10006000E3000008E3000008E3000008E3000008E4
:10007000E3000008E3000008E3000008E3000008D4
:10008000E3000008E3000008E3000008E3000008C4
:10009000E3000008E3000008E3000008E3000008B4
:1000A000E3000008E3000008E3000008D592000820
:1000B000F9920008E3000008E300000803488546C1
:1000C00009F098F90048004791160008E838002028
:1000D0000448804704480047FEE7FEE7FEE7FEE7E6
:1000E000FEE7FEE7F3750008BD0000080020FE49AA
:1000F0000860704710B50124FC480068010E00201C
:1001000004F0D1FCF9480068000E44400A2008F0D1
:1001100038FFF64800680002010E012004F0C3FC1D
:10012000F24800680002000E44400A2008F029FF4F
:10013000EE4800880004010E022004F0B4FCEB48F5
:1001400000880004000E44400A2008F01AFFE74827
:100150000178032004F0A7FCE448007844400A201A
:1001600008F00FFFE24800880004010E042004F0AC
:100170009AFCDF4800880004000E44400A2008F082
:1001800000FFDB480178052004F08DFCD84800789A
:1001900044400A2008F0F5FED64800880004010E0D
:1001A000062004F080FCD34800880004000E444080
:1001B0000A2008F0E6FECF480178072004F073FC1F
:1001C000CC48007844400A2008F0DBFECA4800888A
:1001D0000004010E082004F066FCC74800880004F3
:1001E000000E44400A2008F0CCFEC34801780920E4
:1001F00004F059FCC048007844400A2008F0C1FED1
:10020000BE480068010E0A2004F04DFCBB4800689F
:10021000000E44400A2008F0B4FEB848006800020E
:10022000010E0B2004F03FFCB44800680002000EF1
:1002300044400A2008F0A5FEB04800880004010EE2
:100240000C2004F030FCAD4800880004000E44404F
:100250000A2008F096FEA94801780D2004F023FC3E
:10026000A648007844400A2008F08BFEA4480068A5
:10027000010E0E2004F017FCA1480068000E444057
:100280000A2008F07EFE9E4800680002010E0F2042
:1002900004F009FC9A4800680002000E44400A205D
:1002A00008F06FFE964800880004010E102004F04C
:1002B000FAFB934800880004000E44400A2008F02E
:1002C00060FE8F480178112004F0EDFB8C48007827
:1002D00044400A2008F055FE8A480068010E1220AA
:1002E00004F0E1FB87480068000E44400A2008F053
:1002F00048FE844800680002010E132004F0D3FB7E
:10030000804800680002000E44400A2008F039FED0
:100310007C4800880004010E142004F0C4FB7948D6
:1003200000880004000E44400A2008F02AFE7548A8
:100330000178152004F0B7FB7248007844400A2089
:1003400008F01FFE70480068010E162004F0ABFB99
:100350006D480068000E44400A2008F012FE6A480A
:1003600000680002010E172004F09DFB664800683B
:100370000002000E44400A2008F003FE6248008894
:100380000004010E182004F08EFB5F480088000472
:10039000000E44400A2008F0F4FD5B480178192063
:1003A00004F081FB5848007844400A2008F0E9FD39
:1003B000564801781A2004F076FB544800784440EF
:1003C0000A2008F0DEFD5248008801121B2004F0CC
:1003D0006AFB4F480088001244400A2008F0D1FD13
:1003E0004B4801781C2004F05EFB494800784440EB
:1003F0000A2008F0C6FD4748008801121D2004F0BD
:1004000052FB44480088001244400A2008F0B9FD1D
:10041000404801781E2004F046FB3E4800784440E6
:100420000A2008F0AEFD3C4801781F2004F03BFB99
:100430003948007844400A2008F0A3FD3748006896
:10044000010E202004F02FFB34480068000E4440C9
:100450000A2008F096FD314800680002010E2120B4
:1004600004F021FB2D4800680002000E44400A20E1
:1004700008F087FD294800880004010E222004F0BE
:1004800012FB264800880004000E44400A2008F0B1
:1004900078FD22480178232004F005FB1F480078EE
:1004A00044400A2008F06DFD1D48008801122420F8
:1004B00004F0F9FA1A480088001244400A2008F0B3
:1004C00060FD17480178252004F0EDFA1448007803
:1004D00044400A2008F055FD12480068010E26200D
:1004E00004F0E1FA0F481FE05C02002054000020F5
:1004F000100100201401002018010020C00000207D
:10050000C4000020C8000020CC000020E80000202B
:10051000E2000020E0000020E40000202401002090
:10052000E6000020580000200068000E44400A2029
:1005300008F027FDFE4800680002010E272004F0A5
:10054000B2FAFB4800680002000E44400A2008F09E
:1005500018FDF74800880004010E282004F0A3FAD3
:10056000F34800880004000E44400A2008F009FD0A
:10057000EF480178292004F096FAED4800784440CD
:100580000A2008F0FEFCEB4801782A2004F08BFAE0
:10059000E848007844400A2008F0F3FCE648017877
:1005A0002B2004F080FAE448007844400A2008F048
:1005B000E8FC2146E14804F076FA10BD70B5054626
:1005C0000C4604E02178284608F067FE641C207879
:1005D0000028F7D10D21284608F05FFE0A212846A1
:1005E00008F05BFE70BDF3B581B00F460026002F0A
:1005F00004D13021019808F050FEFEBD002F05DA2D
:100600007D422D21019808F048FE00E03D46CC498E
:10061000284608F0C5FE0446002C06D0204630309F
:10062000C1B2019808F039FE0126C54860432D1A71
:10063000C449284608F0B4FE0446012E01D0002C1F
:1006400006D020463030C1B2019808F026FE0126BF
:10065000BC4860432D1ABC49284608F0A1FE044658
:10066000012E01D0002C06D020463030C1B20198B6
:1006700008F013FE0126B44860432D1AB3492846FA
:1006800008F08EFE0446012E01D0002C06D0204634
:100690003030C1B2019808F000FE0126AB4860433B
:1006A0002D1AAB49284608F07BFE0446012E01D0E6
:1006B000002C06D020463030C1B2019808F0EDFD84
:1006C0000126A34860432D1AA249284608F068FE77
:1006D0000446012E01D0002C06D020463030C1B295
:1006E000019808F0DAFD01269A4860432D1A7D2111
:1006F000C900284608F054FE0446012E01D0002C03
:1007000006D020463030C1B2019808F0C6FD01265F
:100710007D20C00060432D1A6421284608F040FE69
:100720000446012E01D0002C06D020463030C1B244
:10073000019808F0B2FD0126642060432D1A0A21B9
:10074000284608F02DFE0446012E01D0002C06D0CC
:1007500020463030C1B2019808F09FFD01260A20E2
:1007600060432D1A2C46012E01D0002C06D02046C5
:100770003030C1B2019808F090FD012600BF3CE77F
:1007800070B505460C4604E02178284608F085FD42
:10079000641C20780028F7D170BDF8B5002400272C
:1007A0000124002004F0B1F90546204668400446C3
:1007B000012004F0AAF906462046704004462806A7
:1007C0003104401864490860022004F09EF905468F
:1007D000204668400446032004F097F90646204668
:1007E00070400446280280195B49096840185A493C
:1007F00008605AA10120FFF7C3FF57480168012094
:10080000FFF7F1FE59A10120FFF7D8FE042004F004
:100810007CF90546204668400446052004F075F939
:100820000646204670400446280280195049086058
:10083000062004F06AF90546204668400446072071
:1008400004F063F9064620467040044628028019E9
:1008500048490860082004F058F9054620466840D9
:100860000446092004F051F906462046704004462B
:1008700028028019404908600A2004F046F905461C
:100880002046684004460B2004F03FF90646204607
:1008900070400446280631044018384908600C208E
:1008A00004F033F905462046684004460D2004F064
:1008B0002CF90646204670400446280280192F492C
:1008C000096840182D4908602DA10120FFF758FF45
:1008D0002A4801680120FFF786FE24A10120FFF7C6
:1008E0006DFE0E2004F011F90546204668400446CE
:1008F0000F2004F00AF906462046704004462806F8
:100900003104401824490860102004F0FEF8054620
:10091000204668400446112004F0F7F806462046B9
:1009200070400446280280191B490968401835E0C8
:10093000580000206C00002039010020FF03000057
:1009400000CA9A3B00E1F5058096980040420F00EE
:10095000A08601001027000054000020443A75339F
:1009600032426175645261746531000020000000FC
:10097000100100201401002018010020C0000020F8
:10098000443A7533325331574E475F5448524553BA
:10099000484F4C4400000000C4000020FC4908609F
:1009A000FCA10120FFF7ECFEF94801680120FFF7E8
:1009B0001AFEFEA10120FFF701FE122004F0A5F8A7
:1009C0000546204668400446132004F09EF806467B
:1009D000204670400446280631044018F449086057
:1009E000142004F092F8054620466840044615207D
:1009F00004F08BF806462046704004462802801911
:100A0000EB4909684018EA490860EAA10120FFF7AC
:100A1000B7FEE74801680120FFF7E5FDE3A10120EB
:100A2000FFF7CCFD162004F070F80546204668401C
:100A30000446172004F069F8064620467040044634
:100A4000280631044018E1490860182004F05DF8D8
:100A50000546204668400446192004F056F806462C
:100A600020467040044628028019D8490968401879
:100A7000D6490860D6A10120FFF782FED34801685D
:100A80000120FFF7B0FDC9A10120FFF797FD1A2053
:100A900004F03BF8D44908700846007844401B2015
:100AA00004F033F805462046684004461C2004F054
:100AB0002CF8064620467040044628028019CB498F
:100AC00008801D2004F021F80546204668400446B1
:100AD0001E2004F01AF806462046704004462802FC
:100AE0008019C34908801F2004F00FF8C14908701D
:100AF000084600784440202004F007F805462046C8
:100B000068400446212004F000F806462046704064
:100B10000446280631044018B7490860222003F033
:100B2000F4FF0546204668400446232003F0EDFF0D
:100B3000064620467040044628028019AE490968DE
:100B40004018AD490860ADA10120FFF719FEAA4881
:100B500001680120FFF747FD94A10120FFF72EFD5A
:100B6000242003F0D2FF0546204668400446252095
:100B700003F0CBFF06462046704004462802801949
:100B8000A3490880262003F0C0FF054620466840A0
:100B90000446272003F0B9FF06462046704004466D
:100BA0002806310440189B490860282003F0ADFF57
:100BB0000546204668400446292003F0A6FF064665
:100BC000204670400446280280199249096840185E
:100BD0009049086090A10120FFF7D2FD8D4801687F
:100BE0000120FFF700FD71A10120FFF7E7FC2A209B
:100BF00003F08BFF8C4908700846007844408BA1B5
:100C00000120FFF7BDFD884801780120FFF7EBFCCC
:100C100066A10120FFF7D2FC2B2003F076FF884964
:100C2000087008460078444086A10120FFF7A8FD1F
:100C3000834801780120FFF7D6FC5CA10120FFF773
:100C4000BDFC85A10120FFF79BFD21460120FFF798
:100C5000CAFC56A10120FFF7B1FC844803F055FF00
:100C6000054683A10120FFF78BFD29460120FFF7F0
:100C7000BAFC4EA10120FFF7A1FC7C4803F045FF20
:100C80004440002C01D10120F8BD0020FCE71CB538
:100C90006946002007F009FB79A10120FFF770FDEC
:100CA000684601780120FFF79EFC7EA10120FFF736
:100CB00067FD684641780120FFF795FC79A1012086
:100CC000FFF75EFD684681780120FFF78CFC37A1B5
:100CD0000120FFF773FC01A9002007F073FB72A14C
:100CE0000120FFF74DFD6846C1790120FFF77BFC2D
:100CF0006CA10120FFF744FD684641790120FFF710
:100D000072FC68A10120FFF73BFD68468179012054
:100D1000FFF769FC25A10120FFF750FC1CBD10B5B1
:100D20006A49002007F0C1FA69A10120FFF728FDF8
:100D3000664801780120FFF756FC5AA10120FFF711
:100D40001FFD624841780120FFF74DFC55A10120AD
:100D5000FFF716FD5D4881780120FFF744FC13A1E1
:100D60000120FFF72BFC10BD10B5624AFF210131B5
:100D7000002007F0C3FB60A10120FFF701FD5D48E3
:100D800001780120FFF72FFC46A10120C6E00000FA
:100D9000C4000020443A7533325332574E475F54F3
:100DA00048524553484F4C440000000020000000CA
:100DB000C8000020443A7533325331414C4D5F54E2
:100DC00048524553484F4C4400000000CC000020DE
:100DD000443A7533325332414C4D5F544852455377
:100DE000484F4C4400000000E8000020E2000020D2
:100DF000E0000020E400002024010020443A753384
:100E0000324C544D436865636B54696D65720000E4
:100E1000E600002058000020443A753332426175E4
:100E200064526174653200006C000020443A7538E9
:100E30005374616E6442794D6F64654F6E000000BB
:100E400039010020443A753853696E676C65536503
:100E50006E736F720000000043686B206F66206441
:100E600061746120726561643D000000FF03000051
:100E700043686B20696E206570726F6D203D0000C5
:100E8000443A5468652063757272656E74207469A3
:100E90006D652069735B682C6D2C735D203A202092
:100EA000000000002C200000443A5468652063755F
:100EB0007272656E7420646174652069735B592C6D
:100EC0004D2C445D203A202000000000100000203E
:100ED000443A5468652063757272656E7420746953
:100EE0006D652069735B482C4D2C535D203A2020A2
:100EF0000000000088310020443A54686520637582
:100F00007272656E7420616C61726D206973205B12
:100F1000482C4D2C535D3A2020000000FFF730FC98
:100F2000FE4841780120FFF75EFBFDA10120FFF79D
:100F300027FCFA4881780120FFF755FBF9A1012031
:100F4000FFF73CFB10BD0178491C01700178822934
:100F500001D100210170704700B5F348F3490978C9
:100F6000425CF248FFF7EFFF104600BDF048007802
:100F7000EE490978884201D1012070470020FCE742
:100F800010B50121080707F059F8012006F0E0FD2F
:100F9000012006F0A0FE00BF412006F06AFE0028F6
:100FA000FAD00120400207F000F8FF209030E1491C
:100FB00008606320E0490860012006F0FCFF07F0AC
:100FC00063F810BD10B5FFF7DBFF5B2006F051FEA4
:100FD000002808D15A2006F04CFE002803D0D7A1E3
:100FE0000120FFF7EBFADD49002007F05EF9002150
:100FF0000120000307F05DFB0021FF20013007F016
:10100000B5FAD7480078C5490870D5484078487087
:10101000D34880788870002088600120C00748602D
:101020000A46C10D002007F0F9F90121080307F075
:1010300040FB0121080207F099FA0121080706F098
:10104000FDFF012006F084FD012006F044FE07F0BC
:101050001BF8FF20013007F05BFB0120400406F085
:1010600015FC002007F0D2FA022007F0C5FA002094
:1010700007F0B1FA012007F0C9FA0120000307F0D8
:1010800054FB10BD10B504460020B449C870207848
:10109000087060784870A0788870002007F09DF88C
:1010A000002804D1AFA10120FFF788FA03E0B64978
:1010B000002007F0E3FA10BD10B50446FFF760FF0B
:1010C0009D480068B14948609A48006888600020DF
:1010D0000860084607F03CF8002803D1ACA10120C5
:1010E000FFF76CFA2046FFF7CDFF10BD10B507F0F3
:1010F000B5FF802008F089F8002008F086F801206C
:1011000008F083F807F0CAFF07F0A8FF802008F076
:101110007CF80C2008F079F8AA2008F076F807F09F
:10112000BDFF07F09BFF802008F06FF80D2008F04E
:101130006CF8AA2008F069F807F0B0FF002423E05B
:1011400007F08CFF802008F060F8A11CC8B208F0FE
:101150005CF8FF2008F059F807F0A0FF642007F0C2
:1011600010FF07F07BFF802008F04FF8A11CC8B2E9
:1011700008F04BF8002008F048F807F08FFF6420D3
:1011800007F0FFFE601CC4B2082CD9DB10BD10B5FF
:1011900086B004468B4806F06BFA684606F08AFA79
:1011A00000200090694608710290049005908548DF
:1011B00006F06CFA092C1AD006DC002C0BD0012C9E
:1011C0000FD0042C3ED119E0102C1DD0112C25D0AD
:1011D000122C37D12CE0072201217A4806F0B4FA0C
:1011E00030E007220221774806F0AEFA2AE0072213
:1011F00001214902734806F0A7FA23E007221021D3
:10120000704806F0A1FA1DE0012006F067FA0722F7
:10121000012109046B4806F097FA13E0012006F05B
:101220006FFA072201214904664806F08DFA09E0A9
:10123000012006F077FA072201218904614806F0AF
:1012400083FA00BF00BF5F4806F08AFA01215D48BB
:1012500006F038FA00BF01215A4806F0A8FA002823
:10126000F9D0584806F09AFA00BF0421554806F014
:101270009EFA0028F9D0534806F095FA52490860C2
:101280000968524A51430846514908F089F85149C2
:1012900008600846006806B010BD0146002901DB61
:1012A000084670474842FCE74B480088401C4A49C2
:1012B0000880084600884949884204D100204849EE
:1012C0000870484908607047F8B5002400BF012144
:1012D000C9030920C00606F0BFFB0128F7D0012092
:1012E00007F04FFE00268DE03F4880690821084343
:1012F0003D498861002501E0681CC5B2C82DFBDBB3
:1013000064000121C9030920C00606F0A5FB0128DD
:1013100000D1044334482030008967E08831002040
:101320002C20000020000000CC31002025000020EF
:1013300024000020200000201C000020443A4578B2
:101340007465726E616C205265736574206F63639F
:1013500075727265642E2E2E2E0000001000002083
:1013600018000020443A3E3E2021212052544320C0
:101370005365742054696D65206661696C65642EDF
:10138000202121203C3C0000F03200007C31002074
:10139000443A3E3E2A2A2A2A2A2052544320507296
:1013A000657363616C657220436F6E666967206662
:1013B00061696C6564202A2A2A2A2A2A2A2A3C3C46
:1013C00000000000002401408C000020E40C00001C
:1013D000FF0F00009400002004000020DC05000046
:1013E000ED000020F0000020000400480821084320
:1013F000FE490881002501E0681CC5B2C82DFBDB51
:10140000701CC6B2182E00DA6EE727460120C00510
:10141000844200D205E001200006001B00900098E5
:1014200047423846F8BD0178491C0170017882298D
:1014300001D100210170704700B5ED48ED490978F0
:10144000425CEC48FFF7EFFF104600BDEA48007829
:10145000E8490978884201D1012070470020FCE763
:10146000F3B583B000200090049D029005E00020B9
:1014700028706D1C0298401C029002988228F6DBAE
:10148000049D039801284AD10020019000270EE016
:10149000FFF76CFD012802D1781C87B201E0012022
:1014A0000190D648874202DDFE2005B0F0BD0198CC
:1014B0000028EDD0FFF750FD04462C706D1C264629
:1014C000102C01DC002C01D1FE20EEE70020029060
:1014D0001EE006F0F6FA0020019000270DE0FFF76D
:1014E00045FD012802D1781C87B201E0012001905E
:1014F000C248874201DDFE20D7E701980028EED0E0
:10150000FFF72AFD04462C706D1C0298401C0290C7
:10151000F11C02988842DCDB002028704BE0039825
:10152000022848D10020019000270DE0FFF78EFF30
:10153000012802D1781C87B201E001200190AF4858
:10154000874201DDFE20B0E701980028EED0FFF7CA
:1015500073FF04462C706D1C2646102C01DC002CF9
:1015600001D1FE20A1E7002002901EE006F0A9FABA
:101570000020019000270DE0FFF768FF012802D14D
:10158000781C87B201E0012001909D48874201DD6F
:10159000FE208AE701980028EED0FFF74DFF0446B1
:1015A0002C706D1C0298401C0290F11C029888421D
:1015B000DCDB00202870042077E7FEB505460E46E8
:1015C000002700200090019600BF06E0002101984E
:1015D00001700198401C01907F1C822FF6DB0027D0
:1015E00034E000BF012D03D1FFF7C0FC0128F9D082
:1015F00000BF022D03D1FFF729FF0128F9D0012DEB
:1016000015D1FFF7A9FC04460D2810D00A2C0ED0E6
:101610003470761C7F1C7B480078012816D17A48EC
:101620000078012812D1214607F037FE0EE0022D86
:101630000AD1FFF701FF04460D2805D00A2C03D07C
:101640003470761C7F1C01E0012000900098002877
:10165000C7D0012D08D10D21012007F01EFE0A215F
:10166000012007F01AFE07E00D21022007F015FE09
:101670000A21022007F011FE002F01D1FE20FEBD3D
:101680000D2C01D00A2C01D10420F8E7FE20F6E74A
:1016900098B000201390129000BF00BF00BF00BFA1
:1016A00007F05EF906F0E6FC07F04EFC07F0B7F92C
:1016B000564806F063FB554800687D21C90001903B
:1016C00007F06EFE02900298401E5149884201D9EF
:1016D00001200DE00298401E4E4948610321081F79
:1016E00003F00DF900204B498861072008610020B4
:1016F000002801D000BFFEE7012006F0CDF84648E3
:10170000008910210843444908810920C0068069E6
:10171000402108430921C90688613F4800892021EA
:1017200008433D4908810C200390002168468174DC
:101730000121C174002101740321417403A909200E
:10174000C00606F041F9FEF7D1FC03F080F9032052
:1017500007F0FAFA31490120FFF712F830A1012011
:10176000FEF72CFF002035490860179011E0122089
:10177000FFF70DFD324800684000314908602F48EE
:101780000068096840182D4908601798401CC0B2CD
:10179000179017980A28EADB0A212848006807F002
:1017A000FFFD2749086027A10120FEF7E9FF244833
:1017B00001680120FEF717FF2AA10120FEF7FEFEB7
:1017C00029A10120FEF7DCFF3C211D48006807F03D
:1017D000E7FD014602900120FEF705FF21A101204F
:1017E000FEF7ECFE002006F056FF4BE02004004818
:1017F0004E320020270000202600002050C30000A9
:1018000088130000480000204900002074020020D6
:10181000FFFFFF0000E000E020000048A99400085E
:10182000762E352E302E3109534C4F5045205635EB
:1018300020323032312E312E32380000800000202C
:1018400094000020443A2041444331436F6E766552
:1018500072746564566F6C746167652028566261A6
:101860007429203D20000000443A20566261742013
:101870006C6576656C202830207E20353530293D1A
:1018800020000000FE4988423AD1FFF779FB5B2037
:1018900006F0EFF9002804D0FAA10120FEF78EFE31
:1018A00008E05A2006F0E5F9002803D0FD490120A0
:1018B000FEF784FE0121080706F0C0FB012006F0B8
:1018C00047F9012006F007FA06F0DEFBFF200130A1
:1018D00006F01EFF0120400405F0D8FF0020F24969
:1018E000C870FFF76FFB002006F090FE022006F0A4
:1018F00083FE002006F06FFE012006F087FE02E066
:101900000120EA490870EA4806F0D2F8062006F0FD
:10191000D2F8E84806F0D2F8012007F032FB06F0D2
:10192000D4F80020E4490870E4490870E44880696C
:1019300010210843E2498861084680690121084373
:10194000DF498861DF480088DF490860DFA10120A6
:10195000FEF734FE07F02EFB07F03CFB01210F20C1
:1019600003F016F80A2007F00CFB002003F021F822
:101970001190012003F01DF801021198081880B29F
:101980001190A521119848430290C017010C0298AC
:10199000081800142838D0490870022003F009F80C
:1019A0001190032003F005F801021198081880B285
:1019B0001190642111984843000CC8490870C8A1CF
:1019C0000120FEF7DDFEC44801780120FEF70BFE82
:1019D000C7A10120FEF7F2FDC6A10120FEF7D0FE4F
:1019E000BE4801780120FEF7FEFDC1A10120FEF7EF
:1019F000E5FD0020C149087006A906F056FC05A9BE
:101A0000002006F0DFFC6846007E002844D16846CE
:101A1000407E002840D16846807E00283CD1B8A195
:101A20000120FEF7CBFD00200C900B9007F0D2FABE
:101A300007F0C0FA0920C006806940210843092147
:101A4000C9068861FFF752FBB1480089402108436D
:101A5000AF4908810920C006806920210843092177
:101A6000C90688617D20C00007F08BFAA84800896C
:101A700020210843A649088191482030008902218D
:101A800008438F4920310881084600890421084312
:101A90008B492031088103E09EA10120FEF78EFDD5
:101AA00000200E9000BF00BF0D9000BF00BF089047
:101AB000079000BF00BF9C490870834908609B489D
:101AC00000689B490860012149030920C00605F010
:101AD000C3FF00282AD19749087097A10120FEF77B
:101AE0006DFD0920C0068069102108430921C9063F
:101AF0008861032007F0D1F893480068002804D0DB
:101B000091480068401C002802D190488E49086026
:101B100000208F490860854800688E4908600020D1
:101B20008D4908608D4908608D4908608DA10120AC
:101B3000FEF726FE01200C99FEF755FD8CA1012031
:101B4000FEF71EFE01200B99FEF74DFD68A1012056
:101B5000FEF734FD77480078012804D088A10120E1
:101B6000FEF72CFD03E089A10120FEF727FD8C483C
:101B70000078012803D18BA1FEF720FD03E08DA1A1
:101B80000120FEF71BFDFCE3012002F0E5FF8D487C
:101B90000078012807D103F0E7F800208949087090
:101BA0008949087021E08748007802281DD1242047
:101BB00086490870491C0120FFF7FFFCFE2803D16D
:101BC00083A10120FEF7FAFC80490220FEF7F6FC13
:101BD0006AA10220FEF7F2FC7C490120FEF7EEFC30
:101BE000002078490870784908700A2007F0C9F980
:101BF000022002F0B1FF73480078012808D10220CA
:101C000003F0B2F800206F4908706F49087015E0C2
:101C10006C480078022811D17249FFF721FCFE2898
:101C200003D16BA10120FEF7C9FC68490120FEF732
:101C3000C5FC0020634908706349087005F041FF46
:101C400041480068002804D03F480068401C002834
:101C50000CD138480078002808D101203549087097
:101C6000FEF748FA49A10120FEF7A8FC2F480168B9
:101C70005D48006807F05DFB149039491498B5E0A1
:101C8000F0320000443A506F776572204F6E205258
:101C900065736574206F636375727265642E2E2E92
:101CA0002E0000003C130008883100207400002042
:101CB00055550000FF0F0000D8000020D90000207B
:101CC00000040048E0000020A80000207374617246
:101CD0007420693263200000EA000020EB0000203D
:101CE00054656D7065726174757265203D200000E9
:101CF000200000005248203D20000000DA000020B3
:101D0000506F776572206F6E207265736574210065
:101D10002000004857616B652075702066726F6DFA
:101D200020736C6565702100E90000205C020020D2
:101D3000AC0000206C0000204C696E6B2054657371
:101D400074204D6F6465210024010020C027090024
:101D50002C01002028010020F0000020FC000020C1
:101D6000040100206933325331707265763D000002
:101D700020206933325332707265763D00000000D6
:101D8000456E746572204C544D2E0000456E74658E
:101D900072204E6F726D616C204D6F64652E000075
:101DA0003901002053696E676C652053656E736F4F
:101DB000722E00004475616C2053656E736F722E35
:101DC00000000000300000204900002052330020B5
:101DD000443A20496E76616C696420412D706B74C1
:101DE00021000000D5330020080100200968884246
:101DF0007ED3FE48006800287AD0002002F0D9FD8A
:101E00001190012002F0D5FD01021198081880B24E
:101E10001190A521119848430290C017010C029817
:101E20000818001411901198282804DB11982838FC
:101E3000EF49087005E0EF4911984840401CEC4913
:101E40000870022002F0B5FD1190032002F0B1FDF0
:101E500001021198081880B211906421119848432A
:101E6000000CE54908701220FFF791F90446122092
:101E7000FFF78DF920183C21029007F091FADF4915
:101E8000087001214903DE4805F0E6FD002805D170
:101E9000DA48007880210843D8490870FF210131D1
:101EA0000920C00605F0D8FD002805D1D3480078E8
:101EB00040210843D1490870D248008902210843D3
:101EC000D04908810846008904210843CD4908818A
:101ED000052007F056F8FFF7F7F91390C948008975
:101EE00002210843C7490881C6482038806900E0BC
:101EF0007CE004210843C34920398861052007F0AC
:101F000040F8FFF7E1F912900521022007F0C5F92A
:101F1000FF21022007F0C1F9FF21022007F0BDF9DF
:101F20000020169017900C21022007F0B6F94321EB
:101F3000022007F0B2F91398000E01460290022029
:101F400007F0ABF913980002000E01460290022040
:101F500007F0A3F913980004000E01460290022036
:101F600007F09BF91398C0B201460290022007F0D7
:101F700094F91298000E01460290022007F08DF9A4
:101F800012980002000E01460290022007F085F927
:101F900012980004000E01460290022007F07DF91D
:101FA0001298C0B201460290022007F076F99048DC
:101FB0000178022007F071F98F480178022007F0BC
:101FC0006CF98E480178022007F067F9FF210220A2
:101FD00007F063F9FF21022007F05FF903210220D7
:101FE00007F05BF9884800688849086086480168FE
:101FF0008648006807F09DF914908549149809688F
:1020000088427CD382480068002878D0002002F003
:10201000D0FC1190012002F0CCFC010211980818AC
:1020200080B21190A521119848430290C017010C6D
:1020300002980818001411901198282804DB1198B0
:1020400028386B49087005E06A4911984840401CDF
:1020500067490870022002F0ACFC1190032002F0E6
:10206000A8FC01021198081880B2119064211198FF
:102070004843000C604908701220FFF788F80446B6
:102080001220FFF784F820183C21029007F088F90D
:102090005A49087001214903594805F0DDFC002820
:1020A00005D1564800788021084354490870FF2123
:1020B00001310920C00605F0CFFC002805D14F48AA
:1020C0000078402108434D4908700221084607F076
:1020D000E4F8FF21022007F0E0F8FF21022007F0DA
:1020E000DCF80020169017905421022007F0D5F854
:1020F0004121022007F0D1F8002015909BE0D0E0AC
:10210000444800780A21484315994018C0004249C4
:102110000858000E01460290022007F0BEF83D4824
:1021200000780A21484315994018C0003A490858D8
:102130000002000E01460290022007F0AEF835487A
:1021400000780A21484315994018C0003249085ABE
:102150000004000E01460290022007F09EF82D4870
:1021600000780A21484315994018C0002A49085CA4
:1021700001460290022007F090F8264800780A21D4
:10218000484315994018C000234940184068000E84
:1021900001460290022007F080F81E4800780A21CC
:1021A000484315994018C0001B4940184068000278
:1021B000000E01460290022007F06FF815480078E3
:1021C0000A21484315994018C000134940188088D7
:1021D0000004000E01460290022007F05EF80D4850
:1021E00000780A2148431599401817E0040100209F
:1021F000EA000020FFFF0000EB000020EC000020C0
:1022000000080048200400485C0200200001002073
:10221000FC000020F80000209C020020C000FE49C5
:102220004018007901460290022007F036F8159810
:10223000401CC0B2159015980A2800DA60E7F748EC
:102240000178022007F029F8F5480178022007F00C
:1022500024F8F4480178022007F01FF8FF2102203B
:1022600007F01BF8FF21022007F017F803210220D6
:1022700007F013F8EC480078401CEB49087008465A
:102280000078962805D10020E8490860E6490870E2
:1022900007E07D20C000E5490860E5480068E549A1
:1022A0000860E3480168E448006807F042F81490C9
:1022B000E24914980968884209D3E0480068002878
:1022C00005D00120DE490870DEA1FEF777F9D84875
:1022D0000168E548006807F02CF81490E349149869
:1022E0000968884241D3E148006800283DD0E048B1
:1022F000806910210843DE498861DD48203000896B
:1023000002210843DA492031088108460089042166
:102310000843D74920310881052006F032FEFEF738
:10232000D3FFD4490988C900BB4A5050D048203057
:10233000008902210843CE4920310881CC488069B8
:1023400004210843CA498861052006F01AFEFEF7F9
:10235000BBFFC8490988C900AF4A89184860FEF721
:10236000A3FFB3480068C0490860B548007800285A
:1023700008D10920C0068069102108430921C90637
:102380008861AAE3AA480168BB48006806F0D1FF4B
:102390001490BA491498096888427DD3B7480068F8
:1023A000002879D00020B6490870B6A10120FEF7B8
:1023B000E7F901200E99FEF716F9B4A10120FEF706
:1023C000FDF8B3A10120FEF7DBF901200D99FEF71E
:1023D0000AF9AEA10120FEF7F1F8AF4800891021FB
:1023E0000843AD490881A2482030008910210843E4
:1023F0009F4920310881A848008940210843A64907
:1024000008810846008920210843A3490881022049
:1024100006F0EEFB012006F0EBFB06F0CBFB06F02E
:102420009EFB9E48017868460176002101760121D5
:102430004176817606A8FEF73FFE7D21C9009848C7
:10244000008806F0C3FF1390E1210901139806F0FC
:10245000A7FF9449087008460078E1210901484324
:102460001399081A13903C21139806F099FF401C09
:102470008C494870139880B23C21029006F0A6FF68
:10248000491CC8B287498870012087490873FEF744
:1024900099FDFEF744FC00E024E0FEF765FC012115
:1024A000084605F067FB012006F06BFD00210120C6
:1024B000000306F0FEF80021FF20013006F056F878
:1024C00006F04EFA06F0ABFA012006F03DFC77A1CB
:1024D0000120FEF773F806F07CFB7B480088401C67
:1024E0007949088066480078012800D149E76048AA
:1024F0008069102108435E498861052006F041FD8E
:102500005B4820300089082108435949203108815F
:10251000372006F036FD002010900F9008900790AD
:10252000179062E152482030008902210843504947
:102530002031088108460089042108434C49203194
:102540000881052006F01DFD0020139000BF012129
:10255000C9030920C00605F07FFA0128F7D0012041
:1025600006F00FFD0020169034E0414880690821F4
:1025700008433F4988610020159003E01598401CEE
:10258000C0B215901598C828F8DB13984000139036
:102590000121C9030920C00605F05EFA012803D114
:1025A00001211398084313903148203000890821F5
:1025B00008432F49203108810020159003E0159829
:1025C000401CC0B215901598C828F8DB1698401C1E
:1025D000C0B2169016981828C7DB00BF0121C905A4
:1025E0001398884202D213980E9007E00121090641
:1025F0001398081A1290129840420E901C482030EE
:102600000089022108431A4920310881184880694D
:1026100004210843164959E09C020020EA000020EA
:10262000EB000020EC000020F8000020FC0000205F
:102630005C0200200001002028010020240100206D
:102640006C0000204C544D2054696D65206F7574EA
:102650002E20456E746572204E6F726D616C204D38
:102660006F64652E00000000F4000020F0000020E0
:102670000004004804000020AC000020A800002056
:10268000E9000020535631203D20000020000000CA
:10269000535632203D20000020000048100000204A
:1026A000E00000201800002088310020576F6B6583
:1026B0006E2066726F6D2053544F502062792061F6
:1026C0006C61726D210000002800002088610520E7
:1026D00006F057FC0020139000BF0121C903092018
:1026E000C00605F0B9F90128F7D0012006F049FC31
:1026F0000020169034E0F948806908210843F74922
:1027000088610020159003E01598401CC0B2159018
:102710001598C828F8DB1398400013900121C903CD
:102720000920C00605F098F9012803D1012113986A
:1027300008431390E9482030008908210843E749FD
:10274000203108810020159003E01598401CC0B28C
:1027500015901598C828F8DB1698401CC0B2169042
:1027600016981828C7DB00BF0121C90513988842B5
:1027700002D213980D9007E0012109061398081A58
:102780001290129840420D900C990E98401A0290A7
:10279000FEF783FDD249884202DB0C98002804D161
:1027A0000E9908984018089003E01098401CC0B299
:1027B00010900B990D98401A0290FEF76EFDC849D3
:1027C000884202DB0B98002804D10D990798401825
:1027D000079003E00F98401CC0B20F900A2006F04B
:1027E000D0FB1798401CC0B21790BE4909781798C3
:1027F000884200DA96E6B948806908210843B7495B
:102800008861B6482030008910210843B34920313F
:102810000881B44801781098081A02D10C980E90DB
:1028200009E0B04801781098081A0146029008980B
:1028300006F0CCFD0E90AB4801780F98081A02D133
:102840000B980D9009E0A74801780F98081A0146E7
:102850000290079806F0BAFD0D90002008900790AE
:102860000F901090A0A10120FDF78AFF0C990E98FF
:10287000401A014602900120FDF7B5FE9CA10120FF
:10288000FDF79CFE9BA10120FDF77AFF0B990D98A7
:10289000401A014602900120FDF7A5FE94A10120F7
:1028A000FDF78CFE012195480170012094490870C4
:1028B000002015900C990E98401A0290FEF7EDFC3E
:1028C0009049096888420ED80C990E98401A0290D7
:1028D000FEF7E3FC8C490968884204D91598001D6D
:1028E000C0B2159016E00C990E98401A0290FEF7AF
:1028F000D4FC864988420DDC0C990E98401A02904F
:10290000FEF7CBFC7F490968884203D91598083047
:10291000C0B215900B990D98401A0290FEF7BDFCBD
:102920007B49096888420ED80B990D98401A02908D
:10293000FEF7B3FC77490968884204D91598401C12
:10294000C0B2159016E00B990D98401A0290FEF750
:10295000A4FC6E4988420DDC0B990D98401A029038
:10296000FEF79BFC6A490968884203D91598801CC8
:10297000C0B2159015980B2801D301F0A6FE4300B4
:102980007B449B885B009F440A00C0011C03A00E8F
:10299000D8045C06D107A00E93093B0BEF0C5EA197
:1029A0000120FDF7EDFE624801880120FDF71BFEC6
:1029B0004FA10120FDF702FE5D4800885D490988AE
:1029C00088427DDB0920C006806910210843092167
:1029D000C9068861022006F060F957A10120FDF7C1
:1029E000EDFD7D20C00006F0CCFA01210F2001F0A2
:1029F000CFFF0A2006F0C5FA002001F0DAFF11909F
:102A0000012001F0D6FF01021198081880B2119040
:102A1000A521119848430290C017010C029808188C
:102A2000001428384A490870022001F0C2FF1190B2
:102A3000032001F0BEFF01021198081880B2119026
:102A4000642111984843000C424908701220FEF797
:102A50009EFB04461220FEF79AFB20183C210290B0
:102A600006F09EFC3C490870012149033B4804F0F4
:102A7000F3FF002809D138480078802108433649FF
:102A8000087037483749088002E0374835490880E0
:102A9000FF2101310920C00604F0DEFF002805D126
:102AA0002D480078402108432B4908700221084630
:102AB00006F0F3FBFF21022006F0EFFBFF2100E010
:102AC0001CE1022006F0E9FB2848007800284FD1DD
:102AD0001621022006F0E1FB4EE0FDE30004004871
:102AE00040420F00E4000020645331203D200000EC
:102AF00020000000645332203D200000D800002058
:102B0000D9000020C8000020C000002080841E00E2
:102B1000CC000020C400002075313653656E736F01
:102B20007252656164436F756E74203D2000000031
:102B300028000020E200002054696D6520746F2099
:102B400073656E64205478207061636B65742E0029
:102B5000EA000020EB000020EC0000200008004804
:102B600010270000E0000020881300003901002039
:102B70000D21022006F091FB3921022006F08DFB89
:102B80006E21022006F089FB0E98000E014602908D
:102B9000022006F082FB0E980002000E0146029011
:102BA000022006F07AFB0E980004000E0146029007
:102BB000022006F072FB0E98C0B20146029002207D
:102BC00006F06BFB0C990E98401A000E014602901D
:102BD000022006F062FB0C990E98401A0002000ECB
:102BE00001460290022006F058FB0C990E98401AFC
:102BF0000004000E01460290022006F04EFB0C99E4
:102C00000E98401AC0B201460290022006F045FB21
:102C1000FE480078002847D16E21022006F03DFBD7
:102C20000D98000E01460290022006F036FB0D982A
:102C30000002000E01460290022006F02EFB0D98C5
:102C40000004000E01460290022006F026FB0D98BB
:102C5000C0B201460290022006F01FFB0B990D98AE
:102C6000401A000E01460290022006F016FB0B9956
:102C70000D98401A0002000E01460290022006F054
:102C80000CFB0B990D98401A0004000E01460290AF
:102C9000022006F002FB0B990D98401AC0B20146C3
:102CA0000290022006F0F9FAD9480178022006F0D5
:102CB000F4FAD8480178022006F0EFFAD6480178F5
:102CC000022006F0EAFAFF21022006F0E6FAFF21D0
:102CD000022006F0E2FA0321022006F0DEFA0020CC
:102CE000CE4908807D200001CD490860CD480068AC
:102CF000CD4908600120CD49087005E00120CC498C
:102D000008700A20C649086037E60920C0068069B5
:102D1000102108430921C9068861022005F0BDFF82
:102D2000C4A10120FDF72CFDC9A10120FDF728FD5C
:102D30000B990D98401A014602900120FDF753FCB3
:102D4000C4A10120FDF73AFC7D20C00006F019F96E
:102D500001210F2001F01CFE0A2006F012F90020CC
:102D600001F027FE1190012001F023FE01021198CD
:102D7000081880B21190A52111984843000C1190B9
:102D80001198282804DB11982838A149087005E01B
:102D9000B14911984840401C9D490870022001F03B
:102DA00008FE1190032001F004FE0102119808189A
:102DB00080B21190642111984843000C9549087025
:102DC0001220FEF7E4F904461220FEF7E0F920187D
:102DD0003C21029006F0E4FA8F4908700121490372
:102DE0009E4804F039FE002805D18B4800788021E8
:102DF000084389490870FF2101310920C00604F009
:102E00002BFE002805D184480078402108438249E0
:102E100008700221084606F040FAFF21022006F061
:102E20003CFAFF21022006F038FA784800780028A2
:102E300004D11621022006F030FA03E00D21022011
:102E400006F02BFA3921022006F027FA6E21022023
:102E500006F023FA0E98000E01460290022006F0BA
:102E60001CFA0E980002000E01460290022006F0A5
:102E700014FA0E980004000E01460290022006F09B
:102E80000CFA0E98C0B201460290022006F005FA34
:102E90000C990E98401A000E01460290022006F08E
:102EA000FCF90C990E98401A0002000E014602909F
:102EB000022006F0F2F90C990E98401A0004000E58
:102EC00001460290022006F0E8F90C990E98401A8B
:102ED000C0B201460290022006F0DFF94B480078AC
:102EE000002847D17721022006F0D7F90D98000E6F
:102EF00001460290022006F0D0F90D980002000E63
:102F000001460290022006F0C8F90D980004000E58
:102F100001460290022006F0C0F90D98C0B20146A9
:102F20000290022006F0B9F90B990D98401A000E94
:102F300001460290022006F0B0F90B990D98401A54
:102F40000002000E01460290022006F0A6F90B993D
:102F50000D98401A0004000E01460290022006F06F
:102F60009CF90B990D98401AC0B2014602900220BC
:102F700006F093F926480178022006F08EF92548DC
:102F80000178022006F089F923480178022006F032
:102F900084F9FF21022006F080F9FF21022006F0CB
:102FA0007CF90321022006F078F97D20C0001C493D
:102FB00008601C4800681C49086001201B49087013
:102FC000DBE40920C0068069402108430921C906C5
:102FD000886108468069102108430921C906886173
:102FE000022005F05AFE1EA10120FDF7C9FB18A121
:102FF0000120FDF7C5FB0B990D98401A0146029080
:103000000120FDF7F0FA13A1012037E0390100207B
:10301000EA000020EB000020EC0000202800002047
:10302000A80000205C020020AC000020E900002085
:103030006C0000205761726E696E672072616E6766
:103040006520656E7465726564285332292100001D
:103050002020200020000000FFFF000000080048A2
:10306000416C61726D206576656E74206861707068
:10307000656E65642853322921000000FDF79EFA31
:103080007D20C00005F07DFF0920C0068069202159
:1030900008430921C90688617D20C00005F071FF41
:1030A000FE48008920210843FC490881FEF71EF8EC
:1030B000FEF71CF8F948008940210843F7490881C8
:1030C00001210F2001F064FC0A2005F05AFF0020C6
:1030D00001F06FFC1190012001F06BFC01021198CE
:1030E000081880B21190A521119848430290C0178A
:1030F000010C02980818001411901198282804DB7C
:1031000011982838E649087005E0E64911984840CA
:10311000401CE3490870022001F04BFC1190032091
:1031200001F047FC01021198081880B21190642147
:1031300011984843000CDC4908701220FEF727F86C
:1031400004461220FEF723F820183C21029006F0D6
:1031500027F9D649087001214903D54804F07CFCC1
:10316000002805D1D148007880210843CF49087054
:10317000FF2101310920C00604F06EFC002805D1B2
:10318000CA48007840210843C8490870022108460F
:1031900006F083F8FF21022006F07FF8FF210220CD
:1031A00006F07BF8C3480078002804D116210220DD
:1031B00006F073F803E00D21022006F06EF83921C5
:1031C000022006F06AF86E21022006F066F80E98DA
:1031D000000E01460290022006F05FF80E980002F1
:1031E000000E01460290022006F057F80E980004E7
:1031F000000E01460290022006F04FF80E98C0B271
:1032000001460290022006F048F80C990E98401AE8
:10321000000E01460290022006F03FF80C990E982D
:10322000401A0002000E01460290022006F035F816
:103230000C990E98401A0004000E014602900220DC
:1032400006F02BF80C990E98401AC0B20146029075
:10325000022006F022F897480078002849D1612121
:10326000022006F01AF80D98000E01460290022086
:1032700006F013F80D980002000E0146029002209D
:1032800006F00BF80D980004000E01460290022093
:1032900006F003F80D98C0B201460290022005F036
:1032A000FCFF0B990D98401A000E01460290022077
:1032B00005F0F3FF0B990D98401A0002000E01462D
:1032C0000290022005F0E9FF0B990D98401A0004C6
:1032D000000E0146029000E0FEE3022005F0DDFF53
:1032E0000B990D98401AC0B201460290022005F0D9
:1032F000D4FF6B480178022005F0CFFF6A480178BF
:10330000022005F0CAFF69480178022005F0C5FFD8
:10331000FF21022005F0C1FFFF21022005F0BDFFC3
:103320000321022005F0B9FF7D20C000624908603A
:103330006248006862490860E6E40920C0068069C6
:10334000102108430921C9068861022005F0A5FC67
:103350005CA10120FDF714FA61490120FDF710FA84
:1033600001200E99FDF73FF95EA10120FDF726F936
:103370007D20C00005F005FE01210F2001F008FBB3
:103380000A2005F0FEFD002001F013FB1190012042
:1033900001F00FFB01021198081880B21190A521CD
:1033A000119848430290C017010C029808180014A5
:1033B00011901198282804DB119828383849087092
:1033C00005E0384911984840401C354908700220F2
:1033D00001F0EFFA1190032001F0EBFA01021198CD
:1033E000081880B21190642111984843000C2E49AE
:1033F00008701220FDF7CBFE04461220FDF7C7FE31
:1034000020183C21029005F0CBFF284908700121CB
:103410004903274804F020FB002805D12348007801
:103420008021084321490870FF2101310920C0068D
:1034300004F012FB002805D11C4800784021084305
:103440001A4908700221084605F027FFFF210220D3
:1034500005F023FFFF21022005F01FFF154800782B
:10346000002804D11621022005F017FF03E00D21EA
:10347000022005F012FF3921022005F00EFF77210E
:10348000022005F00AFF0E98000E0146029002206D
:1034900005F003FF0E980002000E25E02000004812
:1034A000EA000020FFFF0000EB000020EC000020FD
:1034B0000008004839010020A80000205C0200201C
:1034C000AC0000205761726E696E672072616E6792
:1034D0006520656E7465726564285331292120006A
:1034E000503000082000000001460290022005F044
:1034F000D4FE0E980004000E01460290022005F052
:10350000CCFE0E98C0B201460290022005F0C5FE26
:103510000C990E98401A000E01460290022005F008
:10352000BCFE0C990E98401A0002000E0146029053
:10353000022005F0B2FE0C990E98401A0004000E0D
:1035400001460290022005F0A8FE0C990E98401A40
:10355000C0B201460290022005F09FFEFE480078AE
:10356000002847D16E21022005F097FE0D98000E2D
:1035700001460290022005F090FE0D980002000E18
:1035800001460290022005F088FE0D980004000E0E
:1035900001460290022005F080FE0D98C0B201465F
:1035A0000290022005F079FE0B990D98401A000E4A
:1035B00001460290022005F070FE0B990D98401A0A
:1035C0000002000E01460290022005F066FE0B99F3
:1035D0000D98401A0004000E01460290022005F0EA
:1035E0005CFE0B990D98401AC0B201460290022071
:1035F00005F053FED9480178022005F04EFED84868
:103600000178022005F049FED6480178022005F035
:1036100044FEFF21022005F040FEFF21022005F0BC
:103620003CFE0321022005F038FE7D200001CE493A
:103630000860CE480068CE4908600120CD49087076
:10364000BEE40920C0068069102108430921C9068B
:103650008861022005F021FBC7490120FDF790F8A1
:10366000C6490120FDF78CF80C990E98401A0146C6
:1036700002900120FCF7B7FFC1A10120FCF79EFFDB
:10368000C0A10120FDF77CF8BC490120FDF778F8C6
:103690000B990D98401A014602900120FCF7A3FFF8
:1036A000B7A10120FCF78AFF7D20C00005F069FC6E
:1036B00001210F2001F06CF90A2005F062FC0020C6
:1036C00001F077F91190012001F073F901021198CE
:1036D000081880B21190A521119848430290C01794
:1036E000010C02980818001411901198282804DB86
:1036F000119828389949087005E0A949119848405F
:10370000401C96490870022001F053F911900320E3
:1037100001F04FF901021198081880B2119064214C
:1037200011984843000C8E4908701220FDF72FFDB8
:1037300004461220FDF72BFD20183C21029005F0D5
:103740002FFE8849087001214903964804F084F946
:10375000002805D1834800788021084381490870FA
:10376000FF2101310920C00604F076F9002805D1B7
:103770007C480078402108437A49087002210846B5
:1037800005F08BFDFF21022005F087FDFF210220BF
:1037900005F083FD70480078002804D1162102202E
:1037A00005F07BFD03E00D21022005F076FD3921B7
:1037B000022005F072FD7721022005F06EFD0E98C3
:1037C000000E01460290022005F067FD0E980002EF
:1037D000000E01460290022005F05FFD0E980004E5
:1037E000000E01460290022005F057FD0E98C0B26F
:1037F00001460290022005F050FD0C990E98401AE7
:10380000000E01460290022005F047FD0C990E982B
:10381000401A0002000E01460290022005F03DFD14
:103820000C990E98401A0004000E014602900220E6
:1038300005F033FD0C990E98401AC0B20146029073
:10384000022005F02AFD44480078002847D177215E
:10385000022005F022FD0D98000E01460290022084
:1038600005F01BFD0D980002000E0146029002209B
:1038700005F013FD0D980004000E01460290022091
:1038800005F00BFD0D98C0B201460290022005F034
:1038900004FD0B990D98401A000E0146029002207B
:1038A00005F0FBFC0B990D98401A0002000E014632
:1038B0000290022005F0F1FC0B990D98401A0004CB
:1038C000000E01460290022005F0E7FC0B990D98CE
:1038D000401AC0B201460290022005F0DEFC1F48EB
:1038E0000178022005F0D9FC1D480178022005F07E
:1038F000D4FC1C480178022005F0CFFCFF210220F7
:1039000005F0CBFCFF21022005F0C7FC03210220BB
:1039100005F0C3FC7D2000011349086013480068CE
:103920001349086001201349087005E50920C00605
:103930008069402108430921C906886108468069D9
:10394000102108430921C9068861022005F0A5F964
:103950000949012028E0000039010020EA00002088
:10396000EB000020EC000020A80000205C020020FA
:10397000AC000020E9000020C434000850300008EA
:10398000200000005761726E696E672072616E6779
:103990006520656E746572656428533229212000A4
:1039A000FFFF000000080048FCF7EAFEFE49012086
:1039B000FCF7E6FE0C990E98401A01460290012091
:1039C000FCF711FEF9A10120FCF7F8FDF6491031D2
:1039D0000120FCF7D5FEF4490120FCF7D1FE09993E
:1039E0000D98401A014602900120FCF7FCFDEFA162
:1039F0000120FCF7E3FD7D20C00005F0C2FA09209C
:103A0000C0068069202108430921C90688617D20FC
:103A1000C00005F0B6FAE648008920210843E449D1
:103A20000881FDF763FBFDF761FBE1480089402158
:103A30000843DF49088101210F2000F0A9FF0A2077
:103A400005F09FFA002000F0B4FF1190012000F073
:103A5000B0FF01021198081880B21190A5211198A9
:103A600048430290C017010C0298081800141190E6
:103A70001198282804DB11982838CE49087005E0F1
:103A8000CD4911984840401CCA490870022000F0F6
:103A900090FF1190032000F08CFF0102119808188C
:103AA00080B21190642111984843000CC3490870FA
:103AB0001220FDF76CFB04461220FDF768FB20186E
:103AC0003C21029005F06CFCBD49087001214903BE
:103AD000BC4803F0C1FF00E0FEE3002805D1B84870
:103AE000007880210843B6490870FF210131092080
:103AF000C00603F0B1FF002805D1B148007840218D
:103B00000843AF4908700221084605F0C6FBFF21B3
:103B1000022005F0C2FBFF21022005F0BEFBAA48EF
:103B20000078002804D11621022005F0B6FB03E03E
:103B30000D21022005F0B1FB3921022005F0ADFB7B
:103B40007721022005F0A9FB0E98000E0146029095
:103B5000022005F0A2FB0E980002000E0146029022
:103B6000022005F09AFB0E980004000E0146029018
:103B7000022005F092FB0E98C0B20146029002208E
:103B800005F08BFB0C990E98401A000E014602902E
:103B9000022005F082FB0C990E98401A0002000EDC
:103BA00001460290022005F078FB0C990E98401A0D
:103BB0000004000E01460290022005F06EFB0C99F5
:103BC0000E98401AC0B201460290022005F065FB33
:103BD0007D480078002847D16121022005F05DFB77
:103BE0000D98000E01460290022005F056FB0D983C
:103BF0000002000E01460290022005F04EFB0D98D7
:103C00000004000E01460290022005F046FB0D98CC
:103C1000C0B201460290022005F03FFB0B990D98BF
:103C2000401A000E01460290022005F036FB0B9967
:103C30000D98401A0002000E01460290022005F085
:103C40002CFB0B990D98401A0004000E01460290BF
:103C5000022005F022FB0B990D98401AC0B20146D4
:103C60000290022005F019FB52480178022005F06D
:103C700014FB52480178022005F00FFB50480178F0
:103C8000022005F00AFBFF21022005F006FBFF21C0
:103C9000022005F002FB0321022005F0FEFA7D2040
:103CA00000014A4908604A4800684A490860C7E478
:103CB0000920C0068069402108430921C90688619E
:103CC00008468069102108430921C906886102203D
:103CD00004F0E3FF40A10120FCF752FD324901202E
:103CE000FCF74EFD0C990E98401A014602900120F7
:103CF000FCF779FC2DA10120FCF760FC7D20C000C1
:103D000005F03FF90920C0068069202108430921F8
:103D1000C90688617D20C00005F033F92448008978
:103D20002021084322490881FDF7E0F9FDF7DEF97B
:103D30001F480089402108431D49088101210F20A7
:103D400000F026FE0A2005F01CF9002000F031FEEC
:103D50001190012000F02DFE01021198081880B288
:103D60001190A521119848430290C017010C0298A8
:103D70000818001411901198282804DB119828388D
:103D80000C49087005E00C4911984840401C09494D
:103D90000870022000F00DFE1190032000F009FED3
:103DA00001021198081825E050300008200000009A
:103DB00020000048EA000020FFFF0000EB00002088
:103DC000EC0000200008004839010020A800002075
:103DD0005C020020AC000020416C61726D206576B1
:103DE000656E742068617070656E65642853312952
:103DF0002100000080B21190642111984843000C0A
:103E0000FE4908701220FDF7C2F904461220FDF7A2
:103E1000BEF920183C21029005F0C2FAF84908705A
:103E200001214903F74803F017FE002805D1F448A3
:103E3000007880210843F2490870FF2101310920F0
:103E4000C00603F009FE002805D1ED4800784021A6
:103E50000843EB4908700221084605F01EFAFF21CD
:103E6000022005F01AFAFF21022005F016FAE648B2
:103E70000078002804D11621022005F00EFA03E094
:103E80000D21022005F009FA3921022005F005FA7A
:103E90006121022005F001FA0E98000E0146029001
:103EA000022005F0FAF90E980002000E0146029079
:103EB000022005F0F2F90E980004000E014602906F
:103EC000022005F0EAF90E98C0B2014602900220E5
:103ED00005F0E3F90C990E98401A000E0146029085
:103EE000022005F0DAF90C990E98401A0002000E33
:103EF00001460290022005F0D0F90C990E98401A64
:103F00000004000E01460290022005F0C6F90C994B
:103F10000E98401AC0B201460290022005F0BDF989
:103F2000B9480078002847D16E21022005F0B5F984
:103F30000D98000E01460290022005F0AEF90D9892
:103F40000002000E01460290022005F0A6F90D982D
:103F50000004000E01460290022005F09EF90D9823
:103F6000C0B201460290022005F097F90B990D9816
:103F7000401A000E01460290022005F08EF90B99BE
:103F80000D98401A0002000E01460290022005F032
:103F900084F90B990D98401A0004000E0146029016
:103FA000022005F07AF90B990D98401AC0B201462B
:103FB0000290022005F071F994480178022005F082
:103FC0006CF98E480178022005F067F98C48017879
:103FD000022005F062F9FF21022005F05EF9FF21C1
:103FE000022005F05AF90321022005F056F97D2040
:103FF000000187490860874800688749086064E3D2
:104000000920C0068069402108430921C90688614A
:1040100008468069102108430921C90688610220E9
:1040200004F03BFE7D490120FCF7AAFB7C490120FE
:10403000FCF7A6FB0A990E98401A0146029001204F
:10404000FCF7D1FA77A10120FCF7B8FA76490120F4
:10405000FCF796FB72490120FCF792FB0B990D9837
:10406000401A014602900120FCF7BDFA6DA1012023
:10407000FCF7A4FA7D20C00004F083FF0920C006ED
:104080008069202108430921C90688617D20C0007C
:1040900004F077FF654800892021084363490881BF
:1040A000FDF724F8FDF722F8604800894021084315
:1040B0005E49088101210F2000F06AFC0A2004F00B
:1040C00060FF002000F075FC1190012000F071FCF1
:1040D00001021198081880B21190A5211198484347
:1040E0000290C017010C0298081800141190119842
:1040F000282804DB119828384449087005E04C4909
:1041000011984840401C41490870022000F051FCC1
:104110001190032000F04DFC01021198081880B2A4
:104120001190642111984843000C34490870122002
:10413000FDF72DF804461220FDF729F820183C2140
:10414000029005F02DF92E490870012149032D48F0
:1041500003F082FC002805D129480078802108431B
:1041600027490870FF2101310920C00603F074FCC3
:10417000002805D1224800784021084320490870D2
:104180000221084605F089F8FF21022005F085F894
:10419000FF21022005F081F81B480078002804D197
:1041A0001621022005F079F803E00D21022005F028
:1041B00074F83921022005F070F86121022005F021
:1041C0006CF80E98000E01460290022005F065F88A
:1041D0000E980002000E01460290022005F05DF8E4
:1041E0000E980004000E01460290022005F055F8DA
:1041F0000E98C0B20146029002201BE0EB000020A6
:10420000EC0000200008004839010020EA000020EE
:10421000A80000205C020020AC000020D83D00086F
:1042200050300008200000008439000820000048B9
:10423000FFFF000005F031F80C990E98401A000EAF
:1042400001460290022005F028F80C990E98401AB9
:104250000002000E01460290022005F01EF80C99A3
:104260000E98401A0004000E01460290022005F04C
:1042700014F80C990E98401AC0B201460290022020
:1042800005F00BF8FE480078002849D1772102207C
:1042900005F003F80D98000E01460290022004F08C
:1042A000FCFF0D980002000E01460290022004F06F
:1042B000F4FF0D980004000E01460290022004F065
:1042C000ECFF0D98C0B201460290022004F0E5FF19
:1042D0000B990D98401A00E0FDE1000E0146029096
:1042E000022004F0DAFF0B990D98401A0002000E2C
:1042F00001460290022004F0D0FF0B990D98401A5D
:104300000004000E01460290022004F0C6FF0B9943
:104310000D98401AC0B201460290022004F0BDFF81
:10432000D8480178022004F0B8FFD748017802206D
:1043300004F0B3FFD5480178022004F0AEFFFF215E
:10434000022004F0AAFFFF21022004F0A6FF0321AF
:10435000022004F0A2FF7D200001CD490860CD4875
:104360000068CD490860B0E10920C006806940219D
:1043700008430921C906886108468069102108435D
:104380000921C9068861022004F087FCC349012085
:10439000FCF7F6F9C2490120FCF7F2F90A990E98E8
:1043A000401A014602900120FCF71DF9BDA1012031
:1043B000FCF704F9BA4910310120FCF7E1F9B849DA
:1043C0000120FCF7DDF909990D98401A0146029089
:1043D0000120FCF708F9B3A10120FCF7EFF87D20DC
:1043E000C00004F0CEFD0920C006806920210843EA
:1043F0000921C90688617D20C00004F0C2FDAA48D9
:10440000008920210843A8490881FCF76FFEFCF7CA
:104410006DFEA548008940210843A3490881012178
:104420000F2000F0B5FA0A2004F0ABFD002000F0E8
:10443000C0FA1190012000F0BCFA0102119808188E
:1044400080B21190A521119848430290C017010C29
:1044500002980818001411901198282804DB11986C
:1044600028388849087005E0904911984840401C58
:1044700084490870022000F09CFA1190032000F09B
:1044800098FA01021198081880B2119064211198CD
:104490004843000C7C4908701220FCF778FE044663
:1044A0001220FCF774FE20183C21029004F078FFE3
:1044B00076490870012149037D4803F0CDFA0028B0
:1044C00005D1724800788021084370490870FF21A7
:1044D00001310920C00603F0BFFA002805D16B485E
:1044E000007840210843694908700221084604F019
:1044F000D4FEFF21022004F0D0FEFF21022004F0B0
:10450000CCFE5F480078002804D11621022004F078
:10451000C4FE03E00D21022004F0BFFE3921022079
:1045200004F0BBFE6121022004F0B7FE0E98000EDD
:1045300001460290022004F0B0FE0E980002000E28
:1045400001460290022004F0A8FE0E980004000E1E
:1045500001460290022004F0A0FE0E98C0B201466F
:104560000290022004F099FE0C990E98401A000E59
:1045700001460290022004F090FE0C990E98401A19
:104580000002000E01460290022004F086FE0C9903
:104590000E98401A0004000E01460290022004F01A
:1045A0007CFE0C990E98401AC0B20146029002207F
:1045B00004F073FE32480078002847D161210220C0
:1045C00004F06BFE0D98000E01460290022004F0EC
:1045D00064FE0D980002000E01460290022004F0D5
:1045E0005CFE0D980004000E01460290022004F0CB
:1045F00054FE0D98C0B201460290022004F04DFE18
:104600000B990D98401A000E01460290022004F00A
:1046100044FE0B990D98401A0002000E01460290CC
:10462000022004F03AFE0B990D98401A0004000E87
:1046300001460290022004F030FE0B990D98401ABA
:10464000C0B201460290022004F027FE0D48017816
:10465000022004F022FE0C480178022004F01DFE26
:104660000A480178022004F018FEFF21022004F01D
:1046700014FEFF21022004F010FE0321022019E0A5
:1046800039010020EA000020EB000020EC000020AF
:10469000A80000205C020020AC000020D83D0008EB
:1046A000503000082000000020000048FFFF0000FC
:1046B0000008004804F0F1FD7D200001AB490860CE
:1046C000AB480068AB49086000BF00BF0E980C9073
:1046D0000D980B9000BFFDF757FA70B506460D46D2
:1046E0002806040F092C03DD20465730C4B202E02F
:1046F00020463030C4B22146304604F0CEFD2C07AF
:10470000240F092C03DD20465730C4B202E02046B6
:104710003030C4B22146304604F0BFFD70BDF8B55C
:1047200007460C461546002605E02178641C3846ED
:10473000FFF7D3FF761CAE42F7DB0D21384604F0BD
:10474000ACFD0A21384604F0A8FDF8BD0146002062
:1047500002E0421CD0B2491C0A783B2A02D00A78F7
:104760002C2AF6D170470146002002E0421CD0B24C
:10477000491C0A783B2A05D00A782C2A02D00A78EC
:104780003A2AF3D170470146002001E0421CD0B222
:104790000B78491C002BF9D17047F0B505460C4643
:1047A0002046FFF7F0FF0746002609E029786D1C38
:1047B0002278641C914201D00020F0BD701C86B2AA
:1047C000BE42F3DB0120F8E770B502460124002069
:1047D000086001E0521C5B1C1078202801D10120E8
:1047E00000E000200028F5D110782D2802D01078A4
:1047F0002B2809D11578521C2D2D02D10020C04341
:1048000000E0012004465B1C15E01078302804DB32
:104810001078392801DC012000E00020002809D0B0
:104820001078521C30380A260D687543401908600C
:104830005B1C00E002E010780028E6D100BF0868A9
:1048400060430860002B01D1002070BD0120FCE70F
:10485000F0B503461446012500200860002201E05F
:104860005B1C521C1878202801D1012000E0002098
:104870000028F5D118782D2802D018782B2809D1D6
:104880001E785B1C2D2E02D10020C04300E00120C9
:104890000546521C08E018785B1C30380A270E6861
:1048A0007E4380190860521C1878302804DB187881
:1048B000392801DC012000E000200028EBD1086845
:1048C00068430860207880182070002A01D10020F9
:1048D000F0BD0120FCE700B502462749274B1B78B5
:1048E000CA542648FCF79FFD00BD00B50246244986
:1048F000244B1B78CA542348FCF725FB00BD10B598
:10490000002819DA204A03071B0F083B9B089B006D
:10491000D2588307DC0EFF23A3409A438B071B0E5C
:104920008407E40EA3401A43174B0407240F083CE6
:10493000A408A4001A5118E0144A03231B02D21839
:1049400083089B00D2588307DC0EFF23A3409A43C1
:104950008B071B0E8407E40EA3401A430B4B032462
:1049600024021B198408A4001A5110BDA8000020BD
:104970005C020020AC0000204E3200202600002007
:10498000CC310020240000201CED00E000E100E01C
:1049900070B505460C4604F061FB822004F035FC3E
:1049A000284604F032FC204604F02FFC04F076FB8D
:1049B00070BD70B5044604F051FB822004F025FC64
:1049C000204604F022FC04F049FB832004F01DFC87
:1049D00004F0C2FB054604F0A8FB04F05FFB284688
:1049E00070BD10B50024E1204002F4490860F4498C
:1049F0000860F448F4490860F4490860F448F5494F
:104A00000860F5490860F548F54908803C20F549FB
:104A100008800120F44908700220F4490870F44825
:104A2000F44908600020F44908705020F3490870E8
:104A30000020F349087048708870EB490870FBF754
:104A400059FB0A2004F09DFAFBF7A7FE10BD70B5D4
:104A5000002500BF002407E0FBF79FFE002801D0DF
:104A600005240125601CC4B2012CF5DB002D01D109
:104A7000FFF7B7FF7D20C000E24908600020E2494F
:104A80000870E24908807D20C000DE4908600020EF
:104A9000DF490870DF490870DF490870DF490860A6
:104AA000DF49086070BDF8B504460E466013062164
:104AB0000840074604F0D2FAA0213943084604F022
:104AC000A4FB2546E117090E491909120902611ACA
:104AD000C8B204F09AFB304604F097FB04F0DEFA0B
:104AE000D0A10120FBF74CFE21460120FBF77BFD06
:104AF000D0A10120FBF744FE31460120FBF773FDF6
:104B0000CDA10120FBF75AFDF8BDF8B504466013AE
:104B100006210840064604F0A1FAA02131430846C8
:104B200004F073FB2546E117090E49190912090221
:104B3000611AC8B204F069FB04F090FAA121314374
:104B4000084604F062FB04F007FB074604F0EDFAA8
:104B500004F0A4FA3846F8BDF1B582B00020019007
:104B60000298012868D1FCF701FA002864D1FCF70B
:104B7000F3F90646242E05D10120B0490870B0494A
:104B80000870EFE0252E06D10220AC490870012004
:104B9000AB490870E6E0992E4DD1AA490120FCF7F7
:104BA0005FFCFE2800D1FEBD2046E117890D0918E3
:104BB00089128902611A0BD102F07AFEE117890D80
:104BC000091989128902A04A8818009402F0B2FEDD
:104BD0002046E117890D091889128902611A9B4A3A
:104BE000914206D198497818214602F0C7FE02F09A
:104BF0006BFE002513E06800001D954A105C020260
:104C00006800401D924B185C101881B28E48201825
:104C10006A008018009002F0B1FE681CC5B28C4991
:104C20000878C10F09184910A942E4DC89A10120C4
:104C3000FBF7C4FC96E0B6E702980228A1D1FCF786
:104C400005FC00289DD1FCF7F7FB0646242E05D174
:104C500001207A4908707A49087083E0992E66D15C
:104C60007B490220FCF7FCFBFE2800D19BE72822B1
:104C700077490120FFF753FD7BA10220FBF780FD60
:104C8000734801780120FBF7AEFC76A10120FBF709
:104C900095FC6F48407800026D498978401884B2CD
:104CA0002046E117890D091889128902611A0BD172
:104CB00002F0FEFDE117890D091989128902624A85
:104CC0008818009402F036FE2046E117890D091875
:104CD00089128902611A5D4A914206D15A497818AF
:104CE000214602F04BFE02F0EFFD002513E06800C4
:104CF000001D574A105C02026800401D544B185CAE
:104D0000101881B2504820186A008018009002F0F4
:104D100035FE681CC5B24E490878C10F0918491004
:104D2000A942E4DC4BA10120FBF748FC1AE0314624
:104D3000012004F0B2FA0025002711E0FCF786FB01
:104D4000012801D17F1C07E0FCF776FB01460090AB
:104D5000012004F0A2FA00274448874200D9012527
:104D6000002DEBD000BF1EE711B58FB000200890DA
:104D700034490F98FCF721FCFE2805D13CA10F987F
:104D8000FBF71CFC10B010BD3E4801682D48FFF732
:104D900004FD012811D13C4801680F98FBF70EFC77
:104DA0003A490F98FBF7ECFC39A10F98FBF706FC8A
:104DB0003EA10F98FBF702FC8EE0A7E05400002014
:104DC0005800002020A10700C0000020C4000020DF
:104DD000B0710B00C8000020CC0000208813000038
:104DE000E0000020E20000206C000020E400002031
:104DF000C02709002401002039010020E80000201C
:104E0000180000206C0200209800002028000020DC
:104E1000A4000020A5000020BC000020B400002059
:104E2000B80000204550524F4D20777269746520BC
:104E30003D0000003A00000020000000300000208B
:104E4000490000205233002000D00008FE0300007B
:104E5000D4330020466C61736820777269746520D2
:104E6000646F6E65000000004C4C3D0040420F0036
:104E7000443A20496E76616C696420412D706B74F0
:104E8000210000004401002040020020A9940008F5
:104E9000762E352E302E3109534C4F504520563545
:104EA00020323032312E312E3238000024527061DF
:104EB000723D20202020203A2053686F77207061B7
:104EC00072616D657465727320696E2052414D2068
:104ED0006D656D6F72790000CCA10F98FBF76EFBCA
:104EE000D6A10F98FBF76AFBE1A10F98FBF766FBD1
:104EF000ECA10F98FBF762FBF0A10F98FBF75EFBAC
:104F0000FE4801680F98FBF759FBFDE3FC48016878
:104F1000FC48FFF742FC012848D1F9480068FFF738
:104F200032FC0E90F7490E9808180AA90290FFF774
:104F30004BFC012802D10A98C0B20490F1490E98A6
:104F400008180290FFF70FFC03900E9903980818B9
:104F5000401CEC4940180AA90290FFF735FC0128D3
:104F600002D10A98C0B2039004F078F8802004F0CF
:104F70004CF9049804F049F9039804F046F904F058
:104F80008DF8E1A10F98FBF7FBFB04990F98FBF755
:104F90002AFBE1A10F98FBF7F3FB03990F98FBF7AE
:104FA00022FBDEA10F98FBF709FBAEE7DC480168A6
:104FB000D448FFF7F2FB01287ED1DAA1FBF7FEFA15
:104FC0000920C0068069402108430921C90688617B
:104FD00008468069202108430921C90688617D208F
:104FE000C00003F0CEFF0920C006806940210843BD
:104FF0000921C9068861012003F0C3FFCFA1012068
:10500000FBF7DCFA04F02AF8802004F0FEF8002018
:1050100004F0FBF8012004F0F8F804F03FF804F085
:105020001DF8802004F0F1F80C2004F0EEF8AA201E
:1050300004F0EBF804F032F804F010F8802004F0EB
:10504000E4F80D2004F0E1F8AA2004F0DEF804F002
:1050500025F800200D902CE004F000F8802004F0EA
:10506000D4F808A8007D801CC0B2049004F0CDF8EC
:10507000802004F0CAF804F011F8322003F081FF18
:1050800003F0ECFF802004F0C0F808A8007D801C2D
:10509000C0B2049004F0B9F8002004F0B6F803F0B0
:1050A000FDFF322003F06DFF08A8007D401CC1B257
:1050B0000D9108A8007D00E01BE00828CCDB012052
:1050C000A1490870FF20F53003F05BFF00209E49E6
:1050D00008709E480089202108439C4908810846A1
:1050E00000894021084399490881002098490870A7
:1050F0000BE7984801688348FFF74FFB012806D16A
:10510000924800892021084390490881FDE6924891
:1051100001687C48FFF741FB012875D10A2003F0A4
:1051200030FF8EA10120FBF72BFB8E480168012088
:10513000FBF759FA8CA10120FBF722FB8C48016890
:105140000120FBF750FA8BA10120FBF719FB8B48DC
:1051500001680120FBF747FA89A10120FBF710FB4A
:10516000894801680120FBF73EFA88A10120FBF77E
:1051700007FB884801780120FBF735FA86A101205A
:10518000FBF7FEFA864801880120FBF72CFA85A17F
:105190000120FBF7F5FA854801880120FBF723FA87
:1051A0005EA10120FBF70AFA0920C00680691021E0
:1051B00008430921C90688617D20C00003F0E1FE93
:1051C0007BA10220FBF7DCFA64A10220FBF7D8FAEE
:1051D000644801680220FBF706FA63A10220FBF78E
:1051E000CFFA634801680220FBF7FDF961A10220B4
:1051F000FBF7C6FA614801680220FBF7F4F960A1E9
:105200000220FBF7BDFAD7E001E1000024576476E5
:10521000743D6E2020203A205772697465204465E1
:105220007669636520547970653D303A42532C208D
:10523000313A52532C20323A4D5300002457666CB9
:105240006173683D2020203A2053617665207061AB
:1052500072616D657465727320746F207468652067
:10526000464C415348206D656D6F72790000000017
:105270002452666C6173683D2020203A204C6F6197
:105280006420706172616D65746572732066726FFF
:105290006D2074686520464C415348206D656D6FE4
:1052A00072790000245772657365743D20203A209E
:1052B000536F6674207265736574000024576261D1
:1052C00075643D6E20202020203A206E3D7B3438CE
:1052D00030302C393630302C31343430302C2031D1
:1052E000393230302C33383430302C35373630309A
:1052F0002C203131353230307D000000400200205A
:105300009001002052330020616464726573733A27
:10531000627974653D0000003A0000002000000042
:10532000980100205465737420436F6D6D616E6445
:105330002066726F6D20425300000000737461722A
:105340007420693263200000A4000020200000487F
:10535000E900002094010020AC0100205331613AA3
:1053600000000000C8000020205332613A00000015
:10537000CC000020205331773A000000C00000200C
:10538000205332773A000000C40000202053504ED2
:105390003A000000E400002020534C503A00000086
:1053A000E0000020205458503A000000E2000020A5
:1053B00024547275703D0000FD4801680220FBF71F
:1053C00012F9FC490220FBF7DBF9FB4801780220C7
:1053D000FBF709F9F7490C310220FBF7D1F9F7483F
:1053E00001880220FBF7FFF8F24918310220FBF791
:1053F000C7F9F34801880220FBF7F5F8F1A1022074
:10540000FBF7DCF87D20C00003F0BBFD7DE5EE4836
:105410000168EE48FFF7C1F901287DD1EA4800682C
:10542000FFF7B1F90E90E9490E9808180490FFF7BC
:10543000AAF90C287BD105A9002002F0C3FFE3499B
:105440000E98085C30380A214143E04A0E98401C0F
:10545000105C08183038C1B26846C175DCA10F98DD
:10546000FBF78EF96846C07D014604900F98FBF764
:10547000BAF8D4A10F98FBF7A1F8D4490E98801C74
:10548000085C30380A214143D04A0E98C01C105C99
:1054900008183038C1B26846417511460E98001D93
:1054A000085C30380A2141430E98401D105C0818F2
:1054B0003038C1B26846817505A9002002F01FFF8F
:1054C000C2490E98801D085C30380A214143BF4A0A
:1054D0000E98C01D105C08183038C1B268460176BD
:1054E00011460E980830085C30380A2141430E9866
:1054F0000930105C08183038C1B268464176114650
:105500000E980A30085C30380A2141430E980B305F
:10551000105C0818303801E00EE008E0C1B26846BF
:10552000817606A8FBF7C8FDFBF7B1FBEDE4ACA163
:105530000120FBF743F8E8E4B4480168A348FFF70B
:105540002CF901287ED1B1480068FFF71CF90490BE
:105550009E486946097C401804AA0AA90090FFF7F2
:1055600077F901286FD10A98C0B20390A848008942
:1055700010210843A64908810020049004E06846F1
:10558000007C401CC1B204916846007C6428F6DBB4
:105590009F4820388069102108439D49203988613F
:1055A0000020FFF706FA09900120FFF702FA010236
:1055B0000998081880B20990A521099848430090DD
:1055C000C017010C009808180014099009982828A1
:1055D00004DB099828388F49087005E08E4909983E
:1055E0004840401C8B4908700220FFF7E2F90990FF
:1055F0000320FFF7DEF901020998081880B209902C
:10560000642109984843000C844908701220FBF774
:10561000BEFD04461220FBF7BAFD20183C21009085
:1056200003F0BEFE7E490870012149037D4802F067
:1056300013FA002805D17A48007880210843784978
:10564000087001E014E112E1FF2101310920C006D8
:1056500002F002FA002805D1714800784021084381
:105660006F4908706A480089022108436849088127
:10567000084600890421084365490881052003F094
:1056800080FCFBF721FE029061480089022108435B
:105690005F4908815E4820388069042108435C49DD
:1056A00020398861052003F06CFCFBF70DFE0190AA
:1056B000039800287BD05CA10120FAF77FFF052129
:1056C000022003F0EAFDFF21022003F0E6FDFF21A6
:1056D000022003F0E2FD0C21022003F0DEFD432155
:1056E000022003F0DAFD0298000E0146009002202D
:1056F00003F0D3FD02980002000E01460090022044
:1057000003F0CBFD029800E0FEE30004000E01462A
:105710000090022003F0C1FD0298C0B20146009043
:10572000022003F0BAFD0198000E0146009002200D
:1057300003F0B3FD01980002000E01460090022024
:1057400003F0ABFD01980004000E0146009002201A
:1057500003F0A3FD0198C0B201460090022003F0BF
:105760009CFD2C480178022003F097FD2B4801781E
:10577000022003F092FD2A480178022003F08DFDFB
:10578000FF21022003F089FDFF21022003F085FDA7
:105790000321022003F081FD01202D4908702D49CD
:1057A000039808602C4800682C4908605FE057E0C7
:1057B000C40000208C530008E4000020E00000201A
:1057C000E200002020000000DC0100205233002015
:1057D00073446174652E5254435F596561723D0094
:1057E00057726F6E6720666F726D61742C2024573C
:1057F000636C6B3D59594D4D444468686D6D7373CE
:10580000202831322062797465732900E401002078
:1058100020040048EA000020FFFF0000EB00002009
:10582000EC00002000080048443A53746172742070
:10583000432D74797065207061636B6574207365A6
:105840006E64696E6720696E2054454453320000CF
:10585000F8000020040100205C0200200801002064
:105860000020F7490860F7A10120FAF7A7FE3FE4FE
:10587000FE480168FE48FEF790FF012830D1FB4842
:105880000068FEF780FF0490F949049808180AA9F7
:105890000390FEF799FF012821D102F009F80A9838
:1058A0000390C017810D0398081880128002F149F7
:1058B0004018029002F03EF8EFA10120FAF760FFD5
:1058C000F0490A98401803214903401A0146039001
:1058D0000120FAF788FEECA10120FAF76FFE07E439
:1058E000EC480168E248FEF758FF012806D101F0B4
:1058F000EBFFE9A10120FAF761FE07E4EB4801683C
:10590000DB48FEF74AFF012829D1E8480068FEF786
:105910003AFF0490D649049808180AA90290FEF7A5
:1059200053FF01281AD1D3490A9840180390D2A1F5
:105930000F98FAF725FF0A990F98FAF754FEDCA1A1
:105940000F98FAF71DFF03980088014602900F9800
:10595000FAF749FED7A10F98FAF730FE56E5D64878
:105960000168C348FEF719FF01286CD1D2480068CE
:10597000FEF709FF0490BE486946097C401804AA56
:105980000AA90190FEF764FF01285BD10A980390F1
:105990006846007C401CC1B20491B5496846007C51
:1059A00008180AA90190FEF70FFF0A980290C3A1F8
:1059B0000F98FAF7E5FE03990F98FAF714FEC1A1C4
:1059C0000F98FAF7DDFE02990F98FAF70CFEB9A1CD
:1059D0000F98FAF7F3FD03988005800D002814D185
:1059E00001F066FF0398800A8002A24940180190E6
:1059F00001F0A0FF029880B201909E4903984018E0
:105A00000090019901F0BAFF1CE003988005800D19
:105A1000AD4988420CD1029880B201909549039813
:105A200040180090019901F0A9FF01F04DFF09E035
:105A3000029880B201908F49039840180090019914
:105A400001F09CFFE2E4A14801688948FEF7A5FE49
:105A500001287CD19D480068FEF795FE049084489B
:105A60006946097C401804AA0AA90390FEF7F0FED3
:105A700001286DD10A98C1B20D916846007C401C86
:105A8000C1B204917A496846007C08180AA90390BB
:105A9000FEF79AFE0A98C0B20C908DA10120FAF789
:105AA0008DFD0020FEF785FF09900120FEF781FFA4
:105AB00001020998081880B20990A5210998484365
:105AC0000390C017010C0398081800140990099856
:105AD000282804DB099828388249087005E08249A3
